{
  "_format": "hh-sol-artifact-1",
  "contractName": "TestNFT",
  "sourceName": "contracts/NFT.sol",
  "abi": [
    {
      "inputs": [],
      "stateMutability": "nonpayable",
      "type": "constructor"
    },
    {
      "inputs": [
        {
          "internalType": "address",
          "name": "sender",
          "type": "address"
        },
        {
          "internalType": "uint256",
          "name": "tokenId",
          "type": "uint256"
        },
        {
          "internalType": "address",
          "name": "owner",
          "type": "address"
        }
      ],
      "name": "ERC721IncorrectOwner",
      "type": "error"
    },
    {
      "inputs": [
        {
          "internalType": "address",
          "name": "operator",
          "type": "address"
        },
        {
          "internalType": "uint256",
          "name": "tokenId",
          "type": "uint256"
        }
      ],
      "name": "ERC721InsufficientApproval",
      "type": "error"
    },
    {
      "inputs": [
        {
          "internalType": "address",
          "name": "approver",
          "type": "address"
        }
      ],
      "name": "ERC721InvalidApprover",
      "type": "error"
    },
    {
      "inputs": [
        {
          "internalType": "address",
          "name": "operator",
          "type": "address"
        }
      ],
      "name": "ERC721InvalidOperator",
      "type": "error"
    },
    {
      "inputs": [
        {
          "internalType": "address",
          "name": "owner",
          "type": "address"
        }
      ],
      "name": "ERC721InvalidOwner",
      "type": "error"
    },
    {
      "inputs": [
        {
          "internalType": "address",
          "name": "receiver",
          "type": "address"
        }
      ],
      "name": "ERC721InvalidReceiver",
      "type": "error"
    },
    {
      "inputs": [
        {
          "internalType": "address",
          "name": "sender",
          "type": "address"
        }
      ],
      "name": "ERC721InvalidSender",
      "type": "error"
    },
    {
      "inputs": [
        {
          "internalType": "uint256",
          "name": "tokenId",
          "type": "uint256"
        }
      ],
      "name": "ERC721NonexistentToken",
      "type": "error"
    },
    {
      "anonymous": false,
      "inputs": [
        {
          "indexed": true,
          "internalType": "address",
          "name": "owner",
          "type": "address"
        },
        {
          "indexed": true,
          "internalType": "address",
          "name": "approved",
          "type": "address"
        },
        {
          "indexed": true,
          "internalType": "uint256",
          "name": "tokenId",
          "type": "uint256"
        }
      ],
      "name": "Approval",
      "type": "event"
    },
    {
      "anonymous": false,
      "inputs": [
        {
          "indexed": true,
          "internalType": "address",
          "name": "owner",
          "type": "address"
        },
        {
          "indexed": true,
          "internalType": "address",
          "name": "operator",
          "type": "address"
        },
        {
          "indexed": false,
          "internalType": "bool",
          "name": "approved",
          "type": "bool"
        }
      ],
      "name": "ApprovalForAll",
      "type": "event"
    },
    {
      "anonymous": false,
      "inputs": [
        {
          "indexed": true,
          "internalType": "address",
          "name": "from",
          "type": "address"
        },
        {
          "indexed": true,
          "internalType": "address",
          "name": "to",
          "type": "address"
        },
        {
          "indexed": true,
          "internalType": "uint256",
          "name": "tokenId",
          "type": "uint256"
        }
      ],
      "name": "Transfer",
      "type": "event"
    },
    {
      "inputs": [
        {
          "internalType": "address",
          "name": "to",
          "type": "address"
        },
        {
          "internalType": "uint256",
          "name": "tokenId",
          "type": "uint256"
        }
      ],
      "name": "approve",
      "outputs": [],
      "stateMutability": "nonpayable",
      "type": "function"
    },
    {
      "inputs": [
        {
          "internalType": "address",
          "name": "owner",
          "type": "address"
        }
      ],
      "name": "balanceOf",
      "outputs": [
        {
          "internalType": "uint256",
          "name": "",
          "type": "uint256"
        }
      ],
      "stateMutability": "view",
      "type": "function"
    },
    {
      "inputs": [
        {
          "internalType": "uint256",
          "name": "tokenId",
          "type": "uint256"
        }
      ],
      "name": "burn",
      "outputs": [],
      "stateMutability": "nonpayable",
      "type": "function"
    },
    {
      "inputs": [
        {
          "internalType": "uint256",
          "name": "tokenId",
          "type": "uint256"
        }
      ],
      "name": "getApproved",
      "outputs": [
        {
          "internalType": "address",
          "name": "",
          "type": "address"
        }
      ],
      "stateMutability": "view",
      "type": "function"
    },
    {
      "inputs": [
        {
          "internalType": "address",
          "name": "owner",
          "type": "address"
        },
        {
          "internalType": "address",
          "name": "operator",
          "type": "address"
        }
      ],
      "name": "isApprovedForAll",
      "outputs": [
        {
          "internalType": "bool",
          "name": "",
          "type": "bool"
        }
      ],
      "stateMutability": "view",
      "type": "function"
    },
    {
      "inputs": [],
      "name": "name",
      "outputs": [
        {
          "internalType": "string",
          "name": "",
          "type": "string"
        }
      ],
      "stateMutability": "view",
      "type": "function"
    },
    {
      "inputs": [
        {
          "internalType": "uint256",
          "name": "tokenId",
          "type": "uint256"
        }
      ],
      "name": "ownerOf",
      "outputs": [
        {
          "internalType": "address",
          "name": "",
          "type": "address"
        }
      ],
      "stateMutability": "view",
      "type": "function"
    },
    {
      "inputs": [
        {
          "internalType": "address",
          "name": "to",
          "type": "address"
        },
        {
          "internalType": "uint256",
          "name": "tokenId",
          "type": "uint256"
        }
      ],
      "name": "safeMint",
      "outputs": [],
      "stateMutability": "nonpayable",
      "type": "function"
    },
    {
      "inputs": [
        {
          "internalType": "address",
          "name": "from",
          "type": "address"
        },
        {
          "internalType": "address",
          "name": "to",
          "type": "address"
        },
        {
          "internalType": "uint256",
          "name": "tokenId",
          "type": "uint256"
        }
      ],
      "name": "safeTransferFrom",
      "outputs": [],
      "stateMutability": "nonpayable",
      "type": "function"
    },
    {
      "inputs": [
        {
          "internalType": "address",
          "name": "from",
          "type": "address"
        },
        {
          "internalType": "address",
          "name": "to",
          "type": "address"
        },
        {
          "internalType": "uint256",
          "name": "tokenId",
          "type": "uint256"
        },
        {
          "internalType": "bytes",
          "name": "data",
          "type": "bytes"
        }
      ],
      "name": "safeTransferFrom",
      "outputs": [],
      "stateMutability": "nonpayable",
      "type": "function"
    },
    {
      "inputs": [
        {
          "internalType": "address",
          "name": "operator",
          "type": "address"
        },
        {
          "internalType": "bool",
          "name": "approved",
          "type": "bool"
        }
      ],
      "name": "setApprovalForAll",
      "outputs": [],
      "stateMutability": "nonpayable",
      "type": "function"
    },
    {
      "inputs": [
        {
          "internalType": "bytes4",
          "name": "interfaceId",
          "type": "bytes4"
        }
      ],
      "name": "supportsInterface",
      "outputs": [
        {
          "internalType": "bool",
          "name": "",
          "type": "bool"
        }
      ],
      "stateMutability": "view",
      "type": "function"
    },
    {
      "inputs": [],
      "name": "symbol",
      "outputs": [
        {
          "internalType": "string",
          "name": "",
          "type": "string"
        }
      ],
      "stateMutability": "view",
      "type": "function"
    },
    {
      "inputs": [
        {
          "internalType": "uint256",
          "name": "tokenId",
          "type": "uint256"
        }
      ],
      "name": "tokenURI",
      "outputs": [
        {
          "internalType": "string",
          "name": "",
          "type": "string"
        }
      ],
      "stateMutability": "view",
      "type": "function"
    },
    {
      "inputs": [
        {
          "internalType": "address",
          "name": "from",
          "type": "address"
        },
        {
          "internalType": "address",
          "name": "to",
          "type": "address"
        },
        {
          "internalType": "uint256",
          "name": "tokenId",
          "type": "uint256"
        }
      ],
      "name": "transferFrom",
      "outputs": [],
      "stateMutability": "nonpayable",
      "type": "function"
    }
  ],
  "bytecode": "0x60806040523480156200001157600080fd5b506040518060400160405280600781526020017f636f6b20776579000000000000000000000000000000000000000000000000008152506040518060400160405280600381526020017f636b77000000000000000000000000000000000000000000000000000000000081525081600090816200008f919062000324565b508060019081620000a1919062000324565b5050506200040b565b600081519050919050565b7f4e487b7100000000000000000000000000000000000000000000000000000000600052604160045260246000fd5b7f4e487b7100000000000000000000000000000000000000000000000000000000600052602260045260246000fd5b600060028204905060018216806200012c57607f821691505b602082108103620001425762000141620000e4565b5b50919050565b60008190508160005260206000209050919050565b60006020601f8301049050919050565b600082821b905092915050565b600060088302620001ac7fffffffffffffffffffffffffffffffffffffffffffffffffffffffffffffffff826200016d565b620001b886836200016d565b95508019841693508086168417925050509392505050565b6000819050919050565b6000819050919050565b600062000205620001ff620001f984620001d0565b620001da565b620001d0565b9050919050565b6000819050919050565b6200022183620001e4565b6200023962000230826200020c565b8484546200017a565b825550505050565b600090565b6200025062000241565b6200025d81848462000216565b505050565b5b8181101562000285576200027960008262000246565b60018101905062000263565b5050565b601f821115620002d4576200029e8162000148565b620002a9846200015d565b81016020851015620002b9578190505b620002d1620002c8856200015d565b83018262000262565b50505b505050565b600082821c905092915050565b6000620002f960001984600802620002d9565b1980831691505092915050565b6000620003148383620002e6565b9150826002028217905092915050565b6200032f82620000aa565b67ffffffffffffffff8111156200034b576200034a620000b5565b5b62000357825462000113565b6200036482828562000289565b600060209050601f8311600181146200039c576000841562000387578287015190505b62000393858262000306565b86555062000403565b601f198416620003ac8662000148565b60005b82811015620003d657848901518255600182019150602085019450602081019050620003af565b86831015620003f65784890151620003f2601f891682620002e6565b8355505b6001600288020188555050505b505050505050565b611e3c806200041b6000396000f3fe608060405234801561001057600080fd5b50600436106100f55760003560e01c80636352211e11610097578063a22cb46511610066578063a22cb46514610282578063b88d4fde1461029e578063c87b56dd146102ba578063e985e9c5146102ea576100f5565b80636352211e146101e857806370a082311461021857806395d89b4114610248578063a144819414610266576100f5565b8063095ea7b3116100d3578063095ea7b31461017857806323b872dd1461019457806342842e0e146101b057806342966c68146101cc576100f5565b806301ffc9a7146100fa57806306fdde031461012a578063081812fc14610148575b600080fd5b610114600480360381019061010f9190611686565b61031a565b60405161012191906116ce565b60405180910390f35b6101326103fc565b60405161013f9190611779565b60405180910390f35b610162600480360381019061015d91906117d1565b61048e565b60405161016f919061183f565b60405180910390f35b610192600480360381019061018d9190611886565b6104aa565b005b6101ae60048036038101906101a991906118c6565b6104c0565b005b6101ca60048036038101906101c591906118c6565b6105c2565b005b6101e660048036038101906101e191906117d1565b6105e2565b005b61020260048036038101906101fd91906117d1565b6105f9565b60405161020f919061183f565b60405180910390f35b610232600480360381019061022d9190611919565b61060b565b60405161023f9190611955565b60405180910390f35b6102506106c5565b60405161025d9190611779565b60405180910390f35b610280600480360381019061027b9190611886565b610757565b005b61029c6004803603810190610297919061199c565b610765565b005b6102b860048036038101906102b39190611b11565b61077b565b005b6102d460048036038101906102cf91906117d1565b6107a0565b6040516102e19190611779565b60405180910390f35b61030460048036038101906102ff9190611b94565b610809565b60405161031191906116ce565b60405180910390f35b60007f80ac58cd000000000000000000000000000000000000000000000000000000007bffffffffffffffffffffffffffffffffffffffffffffffffffffffff1916827bffffffffffffffffffffffffffffffffffffffffffffffffffffffff191614806103e557507f5b5e139f000000000000000000000000000000000000000000000000000000007bffffffffffffffffffffffffffffffffffffffffffffffffffffffff1916827bffffffffffffffffffffffffffffffffffffffffffffffffffffffff1916145b806103f557506103f48261089d565b5b9050919050565b60606000805461040b90611c03565b80601f016020809104026020016040519081016040528092919081815260200182805461043790611c03565b80156104845780601f1061045957610100808354040283529160200191610484565b820191906000526020600020905b81548152906001019060200180831161046757829003601f168201915b5050505050905090565b600061049982610907565b506104a38261098f565b9050919050565b6104bc82826104b76109cc565b6109d4565b5050565b600073ffffffffffffffffffffffffffffffffffffffff168273ffffffffffffffffffffffffffffffffffffffff16036105325760006040517f64a0ae92000000000000000000000000000000000000000000000000000000008152600401610529919061183f565b60405180910390fd5b600061054683836105416109cc565b6109e6565b90508373ffffffffffffffffffffffffffffffffffffffff168173ffffffffffffffffffffffffffffffffffffffff16146105bc578382826040517f64283d7b0000000000000000000000000000000000000000000000000000000081526004016105b393929190611c34565b60405180910390fd5b50505050565b6105dd8383836040518060200160405280600081525061077b565b505050565b6105f56000826105f06109cc565b6109e6565b5050565b600061060482610907565b9050919050565b60008073ffffffffffffffffffffffffffffffffffffffff168273ffffffffffffffffffffffffffffffffffffffff160361067e5760006040517f89c62b64000000000000000000000000000000000000000000000000000000008152600401610675919061183f565b60405180910390fd5b600360008373ffffffffffffffffffffffffffffffffffffffff1673ffffffffffffffffffffffffffffffffffffffff168152602001908152602001600020549050919050565b6060600180546106d490611c03565b80601f016020809104026020016040519081016040528092919081815260200182805461070090611c03565b801561074d5780601f106107225761010080835404028352916020019161074d565b820191906000526020600020905b81548152906001019060200180831161073057829003601f168201915b5050505050905090565b6107618282610c00565b5050565b6107776107706109cc565b8383610c1e565b5050565b6107868484846104c0565b61079a6107916109cc565b85858585610d8d565b50505050565b60606107ab82610907565b5060006107b6610f3e565b905060008151116107d65760405180602001604052806000815250610801565b806107e084610f55565b6040516020016107f1929190611ca7565b6040516020818303038152906040525b915050919050565b6000600560008473ffffffffffffffffffffffffffffffffffffffff1673ffffffffffffffffffffffffffffffffffffffff16815260200190815260200160002060008373ffffffffffffffffffffffffffffffffffffffff1673ffffffffffffffffffffffffffffffffffffffff16815260200190815260200160002060009054906101000a900460ff16905092915050565b60007f01ffc9a7000000000000000000000000000000000000000000000000000000007bffffffffffffffffffffffffffffffffffffffffffffffffffffffff1916827bffffffffffffffffffffffffffffffffffffffffffffffffffffffff1916149050919050565b60008061091383611023565b9050600073ffffffffffffffffffffffffffffffffffffffff168173ffffffffffffffffffffffffffffffffffffffff160361098657826040517f7e27328900000000000000000000000000000000000000000000000000000000815260040161097d9190611955565b60405180910390fd5b80915050919050565b60006004600083815260200190815260200160002060009054906101000a900473ffffffffffffffffffffffffffffffffffffffff169050919050565b600033905090565b6109e18383836001611060565b505050565b6000806109f284611023565b9050600073ffffffffffffffffffffffffffffffffffffffff168373ffffffffffffffffffffffffffffffffffffffff1614610a3457610a33818486611225565b5b600073ffffffffffffffffffffffffffffffffffffffff168173ffffffffffffffffffffffffffffffffffffffff1614610ac557610a76600085600080611060565b6001600360008373ffffffffffffffffffffffffffffffffffffffff1673ffffffffffffffffffffffffffffffffffffffff168152602001908152602001600020600082825403925050819055505b600073ffffffffffffffffffffffffffffffffffffffff168573ffffffffffffffffffffffffffffffffffffffff1614610b48576001600360008773ffffffffffffffffffffffffffffffffffffffff1673ffffffffffffffffffffffffffffffffffffffff168152602001908152602001600020600082825401925050819055505b846002600086815260200190815260200160002060006101000a81548173ffffffffffffffffffffffffffffffffffffffff021916908373ffffffffffffffffffffffffffffffffffffffff160217905550838573ffffffffffffffffffffffffffffffffffffffff168273ffffffffffffffffffffffffffffffffffffffff167fddf252ad1be2c89b69c2b068fc378daa952ba7f163c4a11628f55a4df523b3ef60405160405180910390a4809150509392505050565b610c1a8282604051806020016040528060008152506112e9565b5050565b600073ffffffffffffffffffffffffffffffffffffffff168273ffffffffffffffffffffffffffffffffffffffff1603610c8f57816040517f5b08ba18000000000000000000000000000000000000000000000000000000008152600401610c86919061183f565b60405180910390fd5b80600560008573ffffffffffffffffffffffffffffffffffffffff1673ffffffffffffffffffffffffffffffffffffffff16815260200190815260200160002060008473ffffffffffffffffffffffffffffffffffffffff1673ffffffffffffffffffffffffffffffffffffffff16815260200190815260200160002060006101000a81548160ff0219169083151502179055508173ffffffffffffffffffffffffffffffffffffffff168373ffffffffffffffffffffffffffffffffffffffff167f17307eab39ab6107e8899845ad3d59bd9653f200f220920489ca2b5937696c3183604051610d8091906116ce565b60405180910390a3505050565b60008373ffffffffffffffffffffffffffffffffffffffff163b1115610f37578273ffffffffffffffffffffffffffffffffffffffff1663150b7a02868685856040518563ffffffff1660e01b8152600401610dec9493929190611d20565b6020604051808303816000875af1925050508015610e2857506040513d601f19601f82011682018060405250810190610e259190611d81565b60015b610eac573d8060008114610e58576040519150601f19603f3d011682016040523d82523d6000602084013e610e5d565b606091505b506000815103610ea457836040517f64a0ae92000000000000000000000000000000000000000000000000000000008152600401610e9b919061183f565b60405180910390fd5b805181602001fd5b63150b7a0260e01b7bffffffffffffffffffffffffffffffffffffffffffffffffffffffff1916817bffffffffffffffffffffffffffffffffffffffffffffffffffffffff191614610f3557836040517f64a0ae92000000000000000000000000000000000000000000000000000000008152600401610f2c919061183f565b60405180910390fd5b505b5050505050565b606060405180602001604052806000815250905090565b606060006001610f648461130d565b01905060008167ffffffffffffffff811115610f8357610f826119e6565b5b6040519080825280601f01601f191660200182016040528015610fb55781602001600182028036833780820191505090505b509050600082602001820190505b600115611018578080600190039150507f3031323334353637383961626364656600000000000000000000000000000000600a86061a8153600a858161100c5761100b611dae565b5b04945060008503610fc3575b819350505050919050565b60006002600083815260200190815260200160002060009054906101000a900473ffffffffffffffffffffffffffffffffffffffff169050919050565b80806110995750600073ffffffffffffffffffffffffffffffffffffffff168273ffffffffffffffffffffffffffffffffffffffff1614155b156111cd5760006110a984610907565b9050600073ffffffffffffffffffffffffffffffffffffffff168373ffffffffffffffffffffffffffffffffffffffff161415801561111457508273ffffffffffffffffffffffffffffffffffffffff168173ffffffffffffffffffffffffffffffffffffffff1614155b801561112757506111258184610809565b155b1561116957826040517fa9fbf51f000000000000000000000000000000000000000000000000000000008152600401611160919061183f565b60405180910390fd5b81156111cb57838573ffffffffffffffffffffffffffffffffffffffff168273ffffffffffffffffffffffffffffffffffffffff167f8c5be1e5ebec7d5bd14f71427d1e84f3dd0314c0f7b2291e5b200ac8c7c3b92560405160405180910390a45b505b836004600085815260200190815260200160002060006101000a81548173ffffffffffffffffffffffffffffffffffffffff021916908373ffffffffffffffffffffffffffffffffffffffff16021790555050505050565b611230838383611460565b6112e457600073ffffffffffffffffffffffffffffffffffffffff168373ffffffffffffffffffffffffffffffffffffffff16036112a557806040517f7e27328900000000000000000000000000000000000000000000000000000000815260040161129c9190611955565b60405180910390fd5b81816040517f177e802f0000000000000000000000000000000000000000000000000000000081526004016112db929190611ddd565b60405180910390fd5b505050565b6112f38383611521565b6113086112fe6109cc565b6000858585610d8d565b505050565b600080600090507a184f03e93ff9f4daa797ed6e38ed64bf6a1f010000000000000000831061136b577a184f03e93ff9f4daa797ed6e38ed64bf6a1f010000000000000000838161136157611360611dae565b5b0492506040810190505b6d04ee2d6d415b85acef810000000083106113a8576d04ee2d6d415b85acef8100000000838161139e5761139d611dae565b5b0492506020810190505b662386f26fc1000083106113d757662386f26fc1000083816113cd576113cc611dae565b5b0492506010810190505b6305f5e1008310611400576305f5e10083816113f6576113f5611dae565b5b0492506008810190505b612710831061142557612710838161141b5761141a611dae565b5b0492506004810190505b60648310611448576064838161143e5761143d611dae565b5b0492506002810190505b600a8310611457576001810190505b80915050919050565b60008073ffffffffffffffffffffffffffffffffffffffff168373ffffffffffffffffffffffffffffffffffffffff161415801561151857508273ffffffffffffffffffffffffffffffffffffffff168473ffffffffffffffffffffffffffffffffffffffff1614806114d957506114d88484610809565b5b8061151757508273ffffffffffffffffffffffffffffffffffffffff166114ff8361098f565b73ffffffffffffffffffffffffffffffffffffffff16145b5b90509392505050565b600073ffffffffffffffffffffffffffffffffffffffff168273ffffffffffffffffffffffffffffffffffffffff16036115935760006040517f64a0ae9200000000000000000000000000000000000000000000000000000000815260040161158a919061183f565b60405180910390fd5b60006115a1838360006109e6565b9050600073ffffffffffffffffffffffffffffffffffffffff168173ffffffffffffffffffffffffffffffffffffffff16146116155760006040517f73c6ac6e00000000000000000000000000000000000000000000000000000000815260040161160c919061183f565b60405180910390fd5b505050565b6000604051905090565b600080fd5b600080fd5b60007fffffffff0000000000000000000000000000000000000000000000000000000082169050919050565b6116638161162e565b811461166e57600080fd5b50565b6000813590506116808161165a565b92915050565b60006020828403121561169c5761169b611624565b5b60006116aa84828501611671565b91505092915050565b60008115159050919050565b6116c8816116b3565b82525050565b60006020820190506116e360008301846116bf565b92915050565b600081519050919050565b600082825260208201905092915050565b60005b83811015611723578082015181840152602081019050611708565b60008484015250505050565b6000601f19601f8301169050919050565b600061174b826116e9565b61175581856116f4565b9350611765818560208601611705565b61176e8161172f565b840191505092915050565b600060208201905081810360008301526117938184611740565b905092915050565b6000819050919050565b6117ae8161179b565b81146117b957600080fd5b50565b6000813590506117cb816117a5565b92915050565b6000602082840312156117e7576117e6611624565b5b60006117f5848285016117bc565b91505092915050565b600073ffffffffffffffffffffffffffffffffffffffff82169050919050565b6000611829826117fe565b9050919050565b6118398161181e565b82525050565b60006020820190506118546000830184611830565b92915050565b6118638161181e565b811461186e57600080fd5b50565b6000813590506118808161185a565b92915050565b6000806040838503121561189d5761189c611624565b5b60006118ab85828601611871565b92505060206118bc858286016117bc565b9150509250929050565b6000806000606084860312156118df576118de611624565b5b60006118ed86828701611871565b93505060206118fe86828701611871565b925050604061190f868287016117bc565b9150509250925092565b60006020828403121561192f5761192e611624565b5b600061193d84828501611871565b91505092915050565b61194f8161179b565b82525050565b600060208201905061196a6000830184611946565b92915050565b611979816116b3565b811461198457600080fd5b50565b60008135905061199681611970565b92915050565b600080604083850312156119b3576119b2611624565b5b60006119c185828601611871565b92505060206119d285828601611987565b9150509250929050565b600080fd5b600080fd5b7f4e487b7100000000000000000000000000000000000000000000000000000000600052604160045260246000fd5b611a1e8261172f565b810181811067ffffffffffffffff82111715611a3d57611a3c6119e6565b5b80604052505050565b6000611a5061161a565b9050611a5c8282611a15565b919050565b600067ffffffffffffffff821115611a7c57611a7b6119e6565b5b611a858261172f565b9050602081019050919050565b82818337600083830152505050565b6000611ab4611aaf84611a61565b611a46565b905082815260208101848484011115611ad057611acf6119e1565b5b611adb848285611a92565b509392505050565b600082601f830112611af857611af76119dc565b5b8135611b08848260208601611aa1565b91505092915050565b60008060008060808587031215611b2b57611b2a611624565b5b6000611b3987828801611871565b9450506020611b4a87828801611871565b9350506040611b5b878288016117bc565b925050606085013567ffffffffffffffff811115611b7c57611b7b611629565b5b611b8887828801611ae3565b91505092959194509250565b60008060408385031215611bab57611baa611624565b5b6000611bb985828601611871565b9250506020611bca85828601611871565b9150509250929050565b7f4e487b7100000000000000000000000000000000000000000000000000000000600052602260045260246000fd5b60006002820490506001821680611c1b57607f821691505b602082108103611c2e57611c2d611bd4565b5b50919050565b6000606082019050611c496000830186611830565b611c566020830185611946565b611c636040830184611830565b949350505050565b600081905092915050565b6000611c81826116e9565b611c8b8185611c6b565b9350611c9b818560208601611705565b80840191505092915050565b6000611cb38285611c76565b9150611cbf8284611c76565b91508190509392505050565b600081519050919050565b600082825260208201905092915050565b6000611cf282611ccb565b611cfc8185611cd6565b9350611d0c818560208601611705565b611d158161172f565b840191505092915050565b6000608082019050611d356000830187611830565b611d426020830186611830565b611d4f6040830185611946565b8181036060830152611d618184611ce7565b905095945050505050565b600081519050611d7b8161165a565b92915050565b600060208284031215611d9757611d96611624565b5b6000611da584828501611d6c565b91505092915050565b7f4e487b7100000000000000000000000000000000000000000000000000000000600052601260045260246000fd5b6000604082019050611df26000830185611830565b611dff6020830184611946565b939250505056fea26469706673582212205b2c83accc9dcfffd839a4e984c59779939aecdbd04062e6caa9ab954e0f188164736f6c63430008140033",
  "linkReferences": {},
  "deployedLinkReferences": {}
}